:020000040800F2
:10000000C008002035020008311C0008291700082C
:10001000CD1B00082B0400089921000800000000F7
:100020000000000000000000000000005D1D00084E
:100030006D04000800000000331C00085F1D00086C
:100040004F0200084F0200084F0200084F0200084C
:100050004F0200084F0200084F0200084F0200083C
:100060004F0200084F0200084F0200084F0200082C
:100070004F0200084F0200084F0200084F0200081C
:100080004F0200084F0200084F0200080000000065
:100090000000000000000000000000004F02000807
:1000A0004F0200084F0200084F0200084F020008EC
:1000B0004F0200084F0200084F0200084F020008DC
:1000C0004F0200084F0200084F0200084F020008CC
:1000D0004F0200084F0200084F0200080000000015
:1000E0004F0200084F0200084F0200080000000005
:1000F0000000000000000000000000004F020008A7
:10010000000000004F0200084F0200084F020008E4
:1001100000000000000000000000000000000000DF
:100120004F0200084F0200084F0200084F0200086B
:100130004F02000800000000000000000000000066
:100140000000000000000000000000004F02000856
:100150004F0200084F0200084F0200084F0200083B
:100160004F0200084F0200080000000000000000DD
:10017000000000000000000000000000000000007F
:10018000000000004F020008000000000000000016
:100190004F02000800F002F800F03CF80AA090E8D6
:1001A000000C82448344AAF10107DA4501D100F032
:1001B00031F8AFF2090EBAE80F0013F0010F18BFC3
:1001C000FB1A43F00103184778230000982300002E
:1001D000103A24BF78C878C1FAD8520724BF30C873
:1001E00030C144BF04680C60704700000023002445
:1001F00000250026103A28BF78C1FBD8520728BF37
:1002000030C148BF0B6070471FB502F087F91FBDB2
:1002100010B510BD00F0CFF81146FFF7F5FF01F063
:10022000CDFF00F0EDF803B4FFF7F2FF03BC00F0E0
:10023000F5F800000948804709480047FEE7FEE757
:10024000FEE7FEE7FEE7FEE7FEE7FEE7FEE7FEE786
:1002500004480549054A064B70470000F91D00088F
:1002600095010008C0020020C0080020C004002042
:10027000C004002053EA020C00F069802DE9F04B25
:100280004FF00006002B1FBFB3FA83F503FA05F405
:1002900024FA05F65E4012BF1643B2FA82F502FA5E
:1002A00005F4C5F120051EBF22FA05FC44EA0C0442
:1002B000203556EA044C4FEA144418BF641C4FF032
:1002C00000084FF00009904271EB030C39D300296C
:1002D00019BFB1FA81F701FA07F6B0FA80F700FA10
:1002E00007F6C7F120071EBF20FA07FC46EA0C06F6
:1002F0002037B6FBF4FCA7EB0507103F07F01F0BF8
:10030000CBF120060CFA0BFB2CFA06F644BFB346E1
:100310000026202FA4BF5E464FF0000B5BEA060CC0
:1003200008BF4FF0010B19EB0B09ABFB027C48EB4C
:100330000608C01B06FB02CC0BFB03CC71EB0C01C7
:10034000C1E70B46024641464846BDE8F08B13B56F
:100350004FF000004FF00001AFF30080BDE81C40FB
:1003600070474FF0000200B5134694469646203978
:1003700022BFA0E80C50A0E80C50B1F12001BFF45E
:10038000F7AF090728BFA0E80C5048BF0CC05DF8C4
:1003900004EB890028BF40F8042B08BF704748BF12
:1003A00020F8022B11F0804F18BF00F8012B704786
:1003B000704770477047754600F02CF8AE46050050
:1003C0006946534620F00700854618B020B5FFF770
:1003D0003FFFBDE820404FF000064FF000074FF010
:1003E00000084FF0000B21F00701AC46ACE8C00953
:1003F000ACE8C009ACE8C009ACE8C0098D4670475C
:1004000010B50446AFF300802046BDE81040FFF76A
:100410000ABF000000487047600200200149182010
:10042000ABBEFEE7260002007047FEE70EB542EACB
:100430000121ADF8041001F0CBFB4FF0FF3000902C
:10044000012302AA01A9084800F0E2FC0020009064
:10045000401C00900A28FBDB002001F0B9FB0120C2
:1004600000F008F80EBD000010000020704772B6C2
:10047000FEE7000070B5044600F004F90546601C74
:1004800002D004480078044400F0FCF8401BA0426D
:10049000FAD370BD000000202DE9F84FDFF8B8A1B5
:1004A0000022012403254FF00F090AF1040BAAF1E1
:1004B000040E00BF0B6804FA02F63340B34273D156
:1004C0000F7907F00307012F01D0022F16D187689B
:1004D0004FEA420805FA08FC27EA0C07D1F80CC0DD
:1004E0000CFA08FC4CEA070CC0F808C04768B74390
:1004F0000E79C6F3001696403E4346600E79F643E9
:10050000B6070DD0C768560005FA06FC27EA0C07A7
:10051000D1F808C00CFA06FC4CEA070CC0F80CC075
:100520000E7906F00306022E10D1D60800EB8608DD
:10053000D8F8206057074FEAD76C09FA0CF7BE438A
:100540000F6907FA0CF73743C8F8207006684FEABE
:10055000420C05FA0CF7BE430F7907F0030707FAC0
:100560000CF7374307604E6816F4403F6DD03B4EA2
:10057000376847F480473760366822F0030706F48F
:1005800080460096364E07EB060CDCF808689707A5
:100590003F0F09FA07F826EA0806DFF8C880404549
:1005A00003D14FF000081EE04FE0DFF8BC8040456B
:1005B00002D14FF0010816E0DFF8B080404502D1CB
:1005C0004FF002080FE0DFF8A880404502D14FF05D
:1005D000030808E0DFF89C80404502D14FF0040892
:1005E00001E04FF0070808FA07F848EA0608CCF8D7
:1005F0000888DAF800605746D1F804C09E435FEAE5
:10060000CC2C00D51E433E60DBF800605F46D1F87D
:1006100004C09E435FEA8C2C00D51E433E60DEF88A
:1006200000607746D1F804C09E435FEA8C3C00D559
:100630001E433E60084F083F3E68D1F804C09E4309
:100640005FEACC3C00D51E433E60521C102AFFF4EA
:1006500031AFBDE8F88F0000083C0140443802404B
:100660000030014000000240000402400008024047
:10067000000C0240001002400AB181617047090479
:10068000FBE7000001488068704700000000002080
:1006900002488168027811448160704700000020A0
:1006A0000B4810B5016841F400710160016841F424
:1006B00080610160016841F480710160032000F0F5
:1006C00061F80F2000F006F800F024F8002010BDBB
:1006D000003C024070B50D4D04464FF47A71287805
:1006E000B1FBF0F00A490968B1FBF0F000F088FCBA
:1006F00048B9102C07D200222146501E00F022F8E3
:1007000000206C6070BD012070BD00000000002062
:100710000C0000200A4808B5016841F480410160DE
:10072000006800F4804000900548001F016841F017
:1007300080510160006800F08050009008BD00000A
:1007400044380240F0B40E4B1B680C46C3F302233E
:10075000C3F10705042D00D90425191D072901D26D
:10076000002300E0DB1E012606FA05F1491E2140A8
:1007700099409E40761E16403143F0BC01F00DBDFD
:100780000CED00E0064900F0070208684FF6FF0391
:10079000184040EA0220034A1043086070470000F6
:1007A0000CED00E00000FA052DE9F0470E460500CB
:1007B00065D0DFF81481D8F80000F7B200F0070028
:1007C000B04207D288F80070D8F8000000F00700A7
:1007D000B04254D128683D4C810712D5400703D55B
:1007E000206840F4E05020602878000703D5206896
:1007F00040F4604020602068A96820F0F0000843C1
:1008000020602878C0072DD0304968680839012851
:1008100012D0022813D0032811D0096889070029B3
:100820002DDA216821F0030101432160FFF72AFF3F
:10083000814641F2883A0EE009688903EFE70968CA
:100840008901ECE7FFF71EFFA0EB0901514502D932
:100850000320BDE8F0872068696800F00C00B0EB69
:10086000810FEFD1D8F80010404601F00701B142E6
:1008700007D90770006800F00700B04201D00120DE
:10088000E7E72878400705D52068E96820F4E050BC
:10089000084320602878000706D52068296920F4DD
:1008A000604040EAC100206000F038F82168084A42
:1008B000C1F30311515CC84006490860064800684E
:1008C000FFF708FF0020C4E7003C02400838024060
:1008D000262500080C0000200400002004480549DB
:1008E00000680968044AC1F38221515CC84070471E
:1008F0000C0000200838024036250008044805494D
:1009000000680968044AC1F34231515CC84070472D
:100910000C0000200838024036250008154810B5A4
:10092000006810F00C02144813D01449042A0FD0A8
:10093000082A0ED10F4C241F2268236802F03F02C0
:100940005B0207D52068C0F38810A0FB010106E018
:10095000084610BD2168C1F38811A1FB00010023E6
:10096000FFF788FC2168C1F30141491C4900B0FB35
:10097000F1F010BD083802400024F40040787D01F9
:100980002DE9F84F04006ED02078DFF84C93C007B3
:10099000A9F104054AD009F104000168C1F38101FD
:1009A000012908D00068C0F3810002280AD1D9F8D3
:1009B0000000400206D52868800337D5606800280B
:1009C000E1D033E06068B0F5803F10D0B0F5A02FE3
:1009D000286810D020F480302860286820F4802017
:1009E00028606068A8B1FFF74DFE06460DE0286854
:1009F00040F48030F4E740F480202860F7E700BF3F
:100A0000FFF740FE801B642873D828688003F7D561
:100A10000CE0FFF737FE064605E000BFFFF732FEA9
:100A2000801B6428F0D828688003F7D42078DFF88A
:100A3000AC8280074FF0000A3ED5A748001D016830
:100A400011F00C0F08D00068C0F3810002280BD110
:100A5000D9F80000400207D42868800716D5E0685E
:100A6000012800D112E033E1E068B8B10120C8F8F4
:100A70000000FFF707FE064605E000BFFFF702FE95
:100A8000801B0228C0D828688007F7D5286821690C
:100A900020F0F80040EAC10028600DE0C8F800A08E
:100AA000FFF7F0FD064604E0FFF7ECFD801B02288F
:100AB0001FD828688007F7D42078000722D5864FF2
:100AC00087486169703771B101210160FFF7DAFD74
:100AD000064604E0FFF7D6FD801B022809D83868D7
:100AE0008007F7D50EE0C0F800A0FFF7CBFD064663
:100AF00005E082E0FFF7C6FD801B02287DD838683C
:100B00008007F7D42078400768D5DFF8CCB10027FC
:100B10000BF13C0BDBF80000C0000BD4DBF800103D
:100B200041F08051CBF80010DBF80000012700F005
:100B3000805000906B4E3068C00510D4306840F48F
:100B400080703060FFF79EFD009005E0FFF79AFD92
:100B50000099401A022850D83068C005F6D55E4E7C
:100B6000A0686C3601280FD00528306810D020F01E
:100B700001003060306820F004003060A068B8B137
:100B8000FFF780FD00900FE0306840F00100F4E7CF
:100B900040F004003060F7E7FFF774FD0099411A58
:100BA00041F28830814266D830688007F4D50EE083
:100BB000FFF768FD009007E0FFF764FD0099411A18
:100BC00041F28830814256D830688007F4D42FB182
:100BD000DBF8001021F08051CBF80010A069C8B3F9
:100BE0003D49091D0968C1F3810102294AD0022843
:100BF000504607D0C8F8600000E03CE0FFF742FD37
:100C000004463BE04746C8F86000FFF73BFD064658
:100C100005E000BFFFF736FD801B02282BD82868AF
:100C20008001F7D4D4E907010843A16A2E4A490894
:100C300002EB0141626A41EA8211084394F82C10E8
:100C400040EA0161C9F8001001203866FFF71AFD7B
:100C5000044606E03EE000BFFFF714FD001B02283B
:100C600009D828688001F7D534E000BFFFF70AFDF6
:100C7000001B022802D90320BDE8F88F28688001F4
:100C8000F4D427E00128F7D0D9F80000E26900F495
:100C9000800191421CD1226A00F03F01914217D19C
:100CA00047F6C071626A0140B1EB821F10D1A26A9F
:100CB0004FF0FF3300F4403103EB5202B1EB024F2F
:100CC00006D194F82C1000F07060B0EB016F01D0E9
:100CD0000120D1E70020CFE704380240000047425E
:100CE000800E4742007000400000FFFF70B5040016
:100CF00009D0606A002540B125616561A56294F85C
:100D0000510040B10CE0012070BD6068B0F5827FF9
:100D1000F4D0E561F2E784F85050204600F044F842
:100D2000022084F851002068016821F04001016030
:100D3000A088218900F4827001F404410843A1894C
:100D400001F400610843217C01F002010843217D88
:100D500001F001010843218B01F400710843217F58
:100D600001F03801084394F8201001F08001084395
:100D7000218D01F40051084321680860A069042115
:100D800001EA104094F8241001F010010843216892
:100D900048602068C16921F40061C1616565012076
:100DA00084F85100002070BD10B586B004461421AF
:100DB0006846FFF7D6FA13492068884220D11248C6
:100DC0000021026842F480520260006800F4805002
:100DD00005900D481438026842F001020260006874
:100DE00000F001000590E02000900220CDE9010113
:100DF000032003900520049069460448FFF74CFB4C
:100E000006B010BD003001404438024000000240EE
:100E10002DE9FF4F81B01D46934604464FF001096E
:100E20000E9EFFF72FFC074694F8510061680128D9
:100E300006D0B1F5827F3CD1A168C9BB042838D166
:100E40000298002871D0BBF1000FFBD0002DF9D023
:100E500094F8500001282CD04FF0010A84F850A0DB
:100E600094F85100042802D0052084F851004FF076
:100E70000008C4F85480C4F838B0E587A587029903
:100E80002163E586A586C4F84080C4F844802068C4
:100E90000168490603D4016841F040010160E0683F
:100EA000B0F5006F606808D0F0B3012D49D081E043
:100EB000FFE7022005B0BDE8F08F08B1012D39D160
:100EC000206B21680088C860206B801C2063E08E46
:100ED000401EE0862EE02068816889070FD5E18EEC
:100EE00069B1B9F1010F0AD1216B0988C160206B8A
:100EF000801C2063E08E401EE0864FF000092068D1
:100F00008168C9070CD0E18F51B1C068A16B08801E
:100F1000A06B801CA063E08F401EE0874FF00109AA
:100F2000FFF7B0FBC01B01E00BE067E0B04201D36C
:100F3000701C50D1E08E0028CDD1E08F0028CAD19E
:100F40003EE0206B216800780873206B401C206312
:100F5000E08E401EE0862DE02068816889070FD56D
:100F6000E18E69B1B9F1010F0AD1216B09780173E2
:100F7000206B401C2063E08E401EE0864FF000098D
:100F800020688168C9070CD0E18F51B1C068A16B9E
:100F90000870A06B401CA063E08F401EE0874FF0FC
:100FA0000109FFF76FFBC01BB04202D3701C01D0D8
:100FB00011E086B1E08E0028CED1E08F0028CBD1A1
:100FC0003A463146204600F035FE50B1202060659B
:100FD00084F8508012E084F851A084F850800320F7
:100FE00068E7A06818B92068C1688068009084F834
:100FF00051A084F85080606D0028F1D0012059E79D
:1010000010B5401EB0F1807F01D3012010BD4FF01C
:10101000E02460610F21601701F0BFF80020A0619B
:1010200007202061002010BD10B590F83C20012A57
:1010300022D0012280F83C20CA688C6822F44072D9
:1010400022434C6822F4806222430C6822F400623E
:1010500022430C6922F4805222434C6922F400524C
:101060002243C969002322F480420A4301684A648A
:1010700080F83C30002010BD022010BD70B590F803
:101080003C20012A2CD0012480F83C40022280F828
:101090003D2003685A689D6822F070060A68324352
:1010A0005A60104B02689A420ED0B2F1804F0BD0BA
:1010B0000D4B9A4208D00D4B9A4205D00C4B9A42E8
:1010C00002D00C4B9A4204D1496825F080031943A1
:1010D000916080F83D40002180F83C10084670BDCA
:1010E000022070BD000001400004004000080040E4
:1010F000000C00400040014010B50446022249B1F6
:1011000004290ED0082913D094F84500012816D0E0
:10111000012010BD94F842000128F9D184F8422042
:101120000FE094F843000128F2D184F8432008E04E
:1011300094F844000128EBD184F8442001E084F8BD
:1011400045200422206800F0BCFE2068416C41F478
:10115000004141640E49206888420ED0B0F1804FB2
:101160000BD00C49884208D00B49884205D00B4966
:10117000884202D00A49884204D1816801F00701FF
:10118000062903D0016841F001010160002010BD73
:10119000000001400004004000080040000C004036
:1011A0000040014010B5040003D094F83D0010B198
:1011B00007E0012010BD002084F83C00204600F02C
:1011C0001FF8022084F83D00211D206800F01CFE5D
:1011D000012084F8460084F83E0084F83F0084F83B
:1011E000400084F8410084F8420084F8430084F809
:1011F000440084F8450084F83D00002010BD000044
:1012000008B500680649884208D10648016841F0DF
:1012100008010160006800F00800009008BD0000AF
:10122000000C00404038024070B5044690F83C0085
:101230000025012817D0012684F83C60022084F89C
:101240003D002068826822F0770222F47F428260AB
:101250000868502838D00DDC20284FD005DC90B32A
:10126000102811D14AE0022070BD302846D0402815
:101270000AD13BE060282FD070280DD0B0F5805FF8
:1012800003D0B0F5005F12D0012584F83D60002046
:1012900084F83C00284670BDCB68D1E90121206864
:1012A00000F01CFE2068816841F0770109E0CB68FE
:1012B000D1E90121206800F011FE2068816841F425
:1012C00080418160E1E719E0CA684968206800F060
:1012D000B9FE5021206806E0CA684968206800F01D
:1012E000C2FE6021206800F003FECEE7CA684968AC
:1012F000206800F0A7FE40212068F4E7226801463C
:101300001046F0E770B586B0044614216846FFF732
:1013100028F824682D4E00222D49022301252D484E
:10132000B44209D10C6844F002040C60096801F071
:1013300002010591990319E0B4F1804F0CD0264DBC
:10134000AC421DD10C6844F002040C60096801F045
:101350000201059120211FE00C6844F002040C609A
:10136000096801F0020105914FF480610091CDE917
:101370000132CDE903256946FFF78EF806B070BD4E
:10138000164DAC420DD10C6844F002040C600968A3
:1013900001F00201059180210091CDE901326946F9
:1013A00010E00F488442E9D1086840F0010008606D
:1013B0000868694600F00100059008200090CDE91A
:1013C00001320848CDE90323D6E7000000000140C0
:1013D0003038024000040240000400400008004091
:1013E000000C00400000024070B5044690F83C003C
:1013F00000260D4601280FD0012084F83C006AB178
:10140000042A1DD0082A2FD00C2A3FD00126002004
:1014100084F83C00304670BD022070BD206800F0AA
:101420006FFD2068816941F0080181612068816950
:1014300021F004018161206881692A69114311E06A
:10144000206800F085FD2068816941F400618161B8
:101450002068816921F480618161206881692A693D
:1014600041EA02218161D2E7206800F09DFD2068F9
:10147000C16941F00801C1612068C16921F004011E
:10148000C1612068C1692A69114311E0206800F038
:10149000B7FD2068C16941F40061C1612068C1697C
:1014A00021F48061C1612068C1692A6941EA022191
:1014B000C161ACE710B5040003D094F83D0010B151
:1014C00007E0012010BD002084F83C00204600F019
:1014D0001FF8022084F83D00211D206800F094FCD4
:1014E000012084F8460084F83E0084F83F0084F828
:1014F000400084F8410084F8420084F8430084F8F6
:10150000440084F8450084F83D00002010BD000030
:1015100008B501681448814201D1144810E013480D
:10152000001FB1F1804F0BD0114A914210D10168D8
:1015300041F002010160006800F00200009008BD67
:10154000016841F001010160006800F00100F5E769
:10155000084A9142F3D1016841F00401016000683A
:1015600000F00400EAE700000000014044380240B7
:10157000000400400008004010B50446022249B1B2
:1015800004290ED0082913D094F84100012816D060
:10159000012010BD94F83E000128F9D184F83E20C6
:1015A0000FE094F83F000128F2D184F83F2008E0D2
:1015B00094F840000128EBD184F8402001E084F841
:1015C00041200122206800F06FFC12492068884207
:1015D00003D1426C42F400424264206888420ED03B
:1015E000B0F1804F0BD00C49884208D00B4988429B
:1015F00005D00B49884202D00A49884204D181684B
:1016000001F00701062903D0016841F001010160E2
:10161000002010BD00000140000400400008004010
:10162000000C00400040014070B5040004D094F864
:101630004100002510B106E0012070BD84F8405043
:10164000204600F023F8242084F841002068C16877
:1016500021F40051C160204600F018FD20680169A6
:1016600021F4904101612068416921F02A01416122
:101670002068C16841F40051C1606564202084F88D
:10168000410084F842006563002070BDF0B587B06A
:10169000044614216846FEF764FE20491E4F266862
:1016A00000251E4A1439022303241D48BE4214D1CA
:1016B000166846F010061660126802F010020592D5
:1016C0000A6842F001020A60096801F0010105910F
:1016D00061028DE82A00072117E0124FBE4219D19E
:1016E000166846F020061660126802F02002059285
:1016F0000A6842F001020A60096801F001010591DF
:101700004FF4C0518DE82A000821CDE90341694614
:10171000FEF7C2FE07B0F0BD0010014044380240A1
:101720000000024000140140FEE700002DE9F047F0
:1017300086B014216846FEF714FE4C480024016868
:1017400041F080010160016801F0800105910168AC
:1017500041F001010160016801F00101059101689A
:1017600041F004010160016801F004010591016884
:1017700041F002010160016801F002010591016878
:1017800041F0080101600068394F00F00800059041
:10179000002240F207113846FEF76EFFDFF8D490C2
:1017A0000122D0214846FEF767FF0022202148464B
:1017B000FEF762FFDFF8C080002247F25E0140467C
:1017C000FEF75AFFDFF8B4A0002204215046FEF7CE
:1017D00053FF07200125022603948DE86100694626
:1017E0003846FEF759FED020CDE90005CDE9025478
:1017F00069464846FEF750FE202003948DE86100BC
:1018000069464846FEF748FE562003948DE861007D
:1018100069464046FEF740FE47F208000090CDE9D9
:101820000154694640460394FEF736FE4FF440707B
:1018300000904FF48810CDE9010669464846FEF74E
:101840002BFE28020090CDE90154694638460394E6
:10185000FEF722FE04200090CDE90154694650466F
:101860000394FEF719FE06B0BDE8F0873038024059
:10187000000002400008024000040240000C024048
:10188000114810B50F4901604FF482714160002189
:101890004FF40062C0E902120122C0E904125202B0
:1018A00082611822C0E90721416281620A21C16276
:1018B000FFF71CFA002803D0BDE81040FEF7D7BDA3
:1018C00010BD0000003001401000002010B592B0A3
:1018D00000240F941C2108A81094FEF742FD20213B
:1018E0006846FEF73EFD21481F4901604721C0E9D7
:1018F00001144FF6FF71C0E903148021C0E90541CE
:10190000FFF7D8FD08B1FEF7B2FD0F940FA91748F5
:101910001094FFF7B3FB08B1FEF7A9FD6020CDE9F5
:1019200008040A940B940C940D94082208A90F48FB
:101930000E94FFF759FD08B1FEF799FD00944FF49E
:101940000050CDE90440029401940394694607488D
:101950000794FFF769FB08B1FEF789FD0348FFF71D
:10196000D1FC12B010BD0000000001406800002052
:1019700010B58AB0002407941C2168460894FEF72D
:10198000F0FC15484FF0804101604721C0E9011487
:10199000611EC0E903148461FFF78CFD08B1FEF7F6
:1019A00066FD079407A90C480894FFF767FB08B188
:1019B000FEF75DFD6020CDE900040294082269462F
:1019C00005480494FFF710FD08B1FEF750FD0248EA
:1019D000FFF798FC0AB010BDB000002010B58AB027
:1019E000002407941C2168460894FEF7BAFC1748A7
:1019F000154901604721C0E901144FF6FF71C0E9A4
:101A0000031480218161FFF755FD08B1FEF72FFD1A
:101A1000079407A90D480894FFF730FB08B1FEF7BB
:101A200026FD6020CDE9000402940422694607489F
:101A30000494FFF7D9FC08B1FEF719FD0348FFF73E
:101A400061FC0AB010BD000000040040F800002056
:101A500010B58AB0002407941C2168460894FEF74C
:101A600080FC1748154901604721C0E9011440F284
:101A7000E731C0E9031480218161FFF71BFD08B144
:101A8000FEF7F5FC079407A90D480894FFF7F6FA4E
:101A900008B1FEF7ECFC6020CDE9000402940422BA
:101AA000694607480494FFF79FFC08B1FEF7DFFC86
:101AB0000348FFF727FC0AB010BD000000080040F3
:101AC0004001002010B58EB00024079408940994BA
:101AD0000A940B941C2168460C94FEF742FC1E48A5
:101AE0001C4901604721C0E90114611EC0E90314CB
:101AF0008461FFF757FB08B1FEF7B9FC4FF4805043
:101B0000079007A91448FFF78FFB08B1FEF7AFFC59
:101B10001148FFF7CFFC08B1FEF7A9FC0B940BA905
:101B20000D480C94FFF7AAFA08B1FEF7A0FC60205C
:101B3000CDE9000402940C22694607480494FFF79B
:101B400053FC08B1FEF793FC0348FFF7DBFB0EB034
:101B500010BD0000000C0040880100200C4810B5AA
:101B60000A4901604FF4E1314160002181600C229B
:101B7000C160C0E904128161C161FFF755FD002811
:101B800003D0BDE81040FEF772BC10BD001001404C
:101B9000D00100200C4810B50A4901604FF4E13132
:101BA0004160002181600C22C160C0E904128161A2
:101BB000C161FFF739FD002803D0BDE81040FEF7F2
:101BC00056BC10BD0014014018020020FEE70000C2
:101BD00010B5164C032806D002280BD001284FF070
:101BE000010213D000E0002240212046FEF744FD10
:101BF000012205E0012240212046FEF73DFD0022A2
:101C000080212046FEF738FD012209E040212046D0
:101C1000FEF732FD012280212046FEF72DFD002235
:101C20002046BDE810401021FEF726BD0008024006
:101C3000FEE77047F8B515460E460B46009204467F
:101C40000122022100F02CF8A0B9134813490068C2
:101C5000B0FBF1F04FF47A71484300906068B0F542
:101C6000827F0DD13346002280212046009500F06E
:101C700017F870B1606D40F0200060650320F8BD7A
:101C8000009830B1401E009020688068C043000674
:101C9000F6D50020F8BD00000C00002000366E01D3
:101CA0002DE9F8431E46914688460446089DFEF7F6
:101CB000E9FC401B351AFEF7E5FC0746264800689C
:101CC000C0F3CB3068430AE0701C09D0FEF7DAFCA1
:101CD000C01BA8420FD275B10098B8B3401E009047
:101CE0002068816838EA010033D000214945EBD1F2
:101CF0000020BDE8F8832068416821F0E0014160E0
:101D00006068B0F5827F0BD1A068B0F5004F02D0BB
:101D1000B0F5806F04D12068016821F040010160B6
:101D2000A06AB0F5005F09D12068016821F4005174
:101D300001602068016841F400510160012084F8CD
:101D40005100002084F850000320D2E7FFE700256F
:101D5000C6E70121CAE700000C0000207047FEF72B
:101D600097BC000030B593B030216846FEF7F9FA11
:101D700014210CA8FEF7F5FA1D480025016841F072
:101D800080510160006800F080501190194801688E
:101D900021F4404141F4004101600068022400F454
:101DA0004040119001200090000401908001CDE995
:101DB0000640192008909020CDE9090404200B90DA
:101DC0006846FEF7DDFD08B172B6FEE70CA90F20EC
:101DD00081E831004FF48050CDE90F0502210CA8B5
:101DE000FEF7E2FC002801D072B6FEE713B030BD6A
:101DF00040380240007000400248016841F4700120
:101E00000160704788ED00E0F0B502681F4B204C80
:101E1000204D214E4FF0804C984207D0604505D0B0
:101E2000A04203D0A84201D0B04203D122F07007F3
:101E30004A683A43984210D060450ED0A0420CD078
:101E4000A8420AD0B04208D0144CA04205D0144C8D
:101E5000A04202D0134CA04203D122F44074CA68BD
:101E600022434C6922F0800222438C68C4620C68D1
:101E70008462984201D109690163016841F004015B
:101E80000160012141610260F0BD000000000140DD
:101E90000004004000080040000C004000400140E9
:101EA000004401400048014010B501F01F0301212A
:101EB000046A99408C430462016A9A4011430162AA
:101EC00010BD10B501F00F030421046A99408C4342
:101ED0000462016A9A401143016210BD10B5846822
:101EE00042EA032224F47F440A432243826010BD65
:101EF000826822F070020A4342F007018160704755
:101F000030B5036A026A22F0010202624268846903
:101F100024F073050C682C4323F002058B682B43D7
:101F20000A4DA8420BD123F00805CB6822F4407279
:101F30002B434D6923F0040315438A692A43426009
:101F4000846149684163036230BD000000000140C4
:101F500030B5026A036A23F01003036243688469A0
:101F60000D6824F4E64444EA05248D6822F020023A
:101F700042EA05120B4DA8420ED1CD6822F0800234
:101F800042EA05124D6923F4406343EA85038D69F3
:101F900022F0400243EA850343608461496881631B
:101FA000026230BD0000014030B5036A026A22F4CB
:101FB000807202624268C46923F4007324F07305DE
:101FC0000C682C438D6843EA05230C4DA8420ED1C2
:101FD000CD6823F4006343EA05234D6922F440529F
:101FE00042EA05128D6923F4806342EA05124260D9
:101FF000C4614968C163036230BD00000000014054
:1020000030B5046A026A22F4805202624268C369EF
:102010000D6823F4E64343EA05238D6824F4005455
:1020200044EA0534064DA84204D14D6922F48042A9
:1020300042EA85124260C36149680164046230BDAE
:102040000000014010B5036A046A24F00104046230
:10205000846924F0F00444EA021423F00A020A43DB
:102060008461026210BD10B5036A046A24F0100492
:102070000462846923F0A00324F4704444EA023229
:1020800043EA01118261016210BD000070B504468F
:1020900000680169E26821F440511143016121693E
:1020A000A068E26908436169114308432168CA686E
:1020B00049F20C639A430243CA6020684169A269ED
:1020C00021F440711143416131492068884202D0B6
:1020D0003049884202D1FEF711FC01E0FEF7FEFB19
:1020E000E2690023192164253226B2F5004F6268A7
:1020F00028D0A0FB0101930F9200FEF7BBF8014628
:10210000B0FBF5F06FF01802504301EB800006EBD6
:102110000010B0FBF5F000F0F002B1FBF5F002EBBF
:102120000012B1FBF5F06FF01803584301EB80008B
:1021300006EB0010B0FBF5F000F00F002168104432
:10214000886070BDA0FB010192185B41FEF792F818
:102150000146B0FBF5F00201B1FBF5F06FF018039A
:10216000584301EB800006EBC000B0FBF5F000F037
:10217000F80002EB4002B1FBF5F0584301EB8000A0
:1021800006EBC000B0FBF5F000F00700D6E700005A
:102190000010014000140140FEE70907090E002865
:1021A00004DB00F1E02080F80014704700F00F001D
:1021B00000F1E02080F8141D70470000FEF770FA6F
:1021C000FFF7D0FDFFF7B2FAFFF75AFBFFF7D0FB9E
:1021D000FFF778FCFFF702FCFFF73AFCFFF776FB0E
:1021E000FFF7D8FCFFF7BAFC5A4C01221021204619
:1021F000FEF742FA012240212046FEF73DFA012275
:1022000080212046FEF738FA0221012000F0DAF89A
:102210000221012000F004F90221012000F09CF8C5
:102220004FF4FA642146022000F030F96420FEF7F2
:1022300021F90121084600F0C5F80121084600F007
:10224000EFF80121084600F087F82146012000F050
:102250001DF96420FEF70EF90321012000F0B2F809
:102260000321012000F0DCF80321012000F074F8C4
:1022700040F2A461032000F009F96420FEF7FAF8A7
:10228000802206210120FEF7D1F86420FEF7F2F843
:10229000002205210120FEF7C9F80520FEF7EAF823
:1022A000FF220E210120FEF7C1F80520FEF7E2F81B
:1022B000022210210120FEF7B9F80520FEF7DAF816
:1022C000882204210120FEF7B1F80520FEF7D2F89C
:1022D000002205210220FEF7A9F80520FEF7CAF822
:1022E00080220E210220FEF7A1F80520FEF7C2F899
:1022F000022210211046FEF799F80520FEF7BAF8E1
:10230000882204210220FEF791F80520FEF7B2F89A
:10231000002205210320FEF789F80520FEF7AAF820
:1023200080220E210320FEF781F80520FEF7A2F897
:10233000022210210320FEF779F80520FEF79AF813
:10234000882204210320FEF771F80520FEF792F899
:10235000FEE700000008024030B4184C184B4FF460
:10236000804588B1012907D0022907D0032907D069
:10237000042920D1012210E0012211E0012215E000
:10238000012216E018460DE0012908D002290CD0E0
:1023900003290DD004290ED100221021F2E70022DA
:1023A0000421204630BCFEF767B900220421E9E78A
:1023B00000222946E6E730BC7047000000000240DA
:1023C00000040240F0B4134B134C144D9E1458B14A
:1023D000012905D0022905D0032919D101220AE0DB
:1023E00001220EE0012210E0012909D002290BD0C0
:1023F00003290DD1002231462846F0BCFEF73CB936
:10240000002201211846F8E7002220212046F4E7A7
:10241000F0BC704700000240000802400004024087
:1024200030B4184C184B4FF4005588B1012907D02F
:10243000022907D0032907D0042920D1002210E067
:10244000012211E0012215E0012216E018460DE0FC
:10245000012908D002290CD003290DD004290ED15E
:1024600001224021F2E700220221204630BCFEF783
:1024700003B900220221E9E700222946E6E730BC41
:1024800070470000000002400004024070B50C4696
:1024900001EBD4714D10042811D003281AD0022862
:1024A00028D0012815D119480168CC62C4600068A1
:1024B0000564BDE870400C211448FFF75DB80421A5
:1024C0001348FFF759F812480168CC62C4600068ED
:1024D000856370BD0F480168CC62C4600068C56345
:1024E00008210C48FFF748F8BDE87040082109486A
:1024F000FEF702BE08210848FFF73EF806480168CB
:10250000CC62C4600068C56370BD00008801002013
:102510004001002068000020B00000204FF0407013
:10252000E1EE100A70470000000000000000010208
:10253000030406070809000000000102030400006C
:10254000602500080000002010000000D0010008F5
:102550007025000810000020B0080000EC01000801
:102560000100000010000000000000000024F40042
:040000050800019559
:00000001FF
